:100000000C9463000C948B000C948B000C948B006C
:100010000C948B000C948B000C948B000C94930527
:100020000C948B000C948B000C948B000C948B0024
:100030000C948B000C948B000C948B000C948B0014
:100040000C946D060C948B000C943B060C941506D6
:100050000C948B000C948B000C948B000C948B00F4
:100060000C94B7060C948B000000000024002700BD
:100070002A000000000023002600290000000008DC
:10008000000201000003040700000000000000005F
:10009000010204081020408001020408102001021F
:1000A0000408102000000000250028002B00040494
:1000B0000404040404040202020202020303030310
:1000C000030302001B0811241FBECFEFD8E0DEBFE0
:1000D000CDBF11E0A0E0B1E0E0EDF9E102C0059094
:1000E0000D92AA34B107D9F722E0AAE4B1E001C029
:1000F0001D92A23DB207E1F710E0C3E6D0E004C0D4
:100100002197FE010E94E00CC236D107C9F70E9478
:1001100064080C94E60C0C94000008950895AF92C6
:10012000BF92CF92DF92EF92FF920F931F93CF93E4
:10013000DF936C017B018B01040F151FEB015E0146
:10014000AE18BF08C017D10759F06991D601ED91DB
:10015000FC910190F081E02DC6010995892B79F77A
:10016000C501DF91CF911F910F91FF90EF90DF902C
:10017000CF90BF90AF900895FC01538D448D252FF3
:1001800030E0842F90E0821B930B541710F0CF9631
:10019000089501970895FC01918D828D981761F063
:1001A000A28DAE0FBF2FB11D5D968C91928D9F5F7A
:1001B0009F73928F90E008958FEF9FEF0895FC0159
:1001C000918D828D981731F0828DE80FF11D858D0C
:1001D00090E008958FEF9FEF0895FC01918D228D9F
:1001E000892F90E0805C9F4F821B91098F73992724
:1001F00008958CE192E00E94ED0021E0892B09F442
:1002000020E0822F089580E090E0892B29F00E9461
:10021000F90081110C9400000895FC01A48DA80F31
:10022000B92FB11DA35ABF4F2C91848D90E0019638
:100230008F739927848FA689B7892C93A089B18958
:100240008C91837080648C93938D848D981306C0F9
:100250000288F389E02D80818F7D80830895EF925D
:10026000FF920F931F93CF93DF93EC0181E0888F70
:100270009B8D8C8D98131AC0E889F989808185FF40
:1002800015C09FB7F894EE89FF896083E889F989E2
:1002900080818370806480839FBF81E090E0DF91E4
:1002A000CF911F910F91FF90EF900895F62E0B8D37
:1002B00010E00F5F1F4F0F731127E02E8C8D8E11F2
:1002C0000CC00FB607FCFACFE889F989808185FF59
:1002D000F5CFCE010E940D01F1CFEB8DEC0FFD2F7C
:1002E000F11DE35AFF4FF0829FB7F8940B8FEA8914
:1002F000FB8980818062CFCFCF93DF93EC01888D23
:100300008823B9F0AA89BB89E889F9898C9185FD90
:1003100003C0808186FD0DC00FB607FCF7CF8C911E
:1003200085FFF2CF808185FFEDCFCE010E940D01C8
:10033000E9CFDF91CF910895833081F028F48130A7
:1003400099F08230A9F008958730A9F08830C9F07B
:100350008430B1F4809180008F7D03C08091800053
:100360008F7780938000089584B58F7784BD08953A
:1003700084B58F7DFBCF8091B0008F778093B000E4
:1003800008958091B0008F7DF9CFCF93DF93EEE792
:10039000F0E08491E2E9F0E0D491E0EBF0E0C49188
:1003A000CC23A1F081110E949C01EC2FF0E0EE0F14
:1003B000FF1FEE58FF4FA591B491EC91ED2381E022
:1003C00090E009F480E0DF91CF91089580E090E023
:1003D000FACF1F93CF93DF93282F30E0F901E45831
:1003E000FF4F8491F901E057FF4FD491F901E25595
:1003F000FF4FC491CC23A9F0162F81110E949C01BC
:10040000EC2FF0E0EE0FFF1FEC55FF4FA591B491DC
:100410008FB7F894EC91111108C0D095DE23DC93CE
:100420008FBFDF91CF911F910895DE2BF8CFCF932F
:10043000DF9390E0FC01E057FF4F249182559F4FDE
:10044000FC0184918823D1F090E0880F991FFC0172
:10045000E859FF4FA591B491FC01EC55FF4FC591B0
:10046000D49161110EC09FB7F8948C91E22FE09562
:100470008E238C932881E223E8839FBFDF91CF9165
:1004800008958FB7F894EC91E22BEC938FBFF6CFE1
:10049000CF9390910001891721F09F3F59F1CF919F
:1004A0000895E2ECF0E0C491C7FDF9CF61E00E944D
:1004B0001702CC2309F496C0C23009F0ABC080917A
:1004C000B100887F85608093B1008FEC8093B3008A
:1004D00086E090E0A0E0B0E08093100290931102DB
:1004E000A0931202B09313028091700082608093F7
:1004F0007000D5CF80930001E2ECF0E0C491CF3FD3
:1005000071F2C13039F148F0C23009F445C0C7FD7D
:10051000C6CF61E00E941702CFCF14BC15BC94B5C2
:10052000926094BD95B5916095BD282F30E0F9019A
:10053000E255FF4FE491F0E0EE0FFF1FEC55FF4F47
:1005400045915491F901E057FF4FE491E0930F0278
:10055000C0E0ACCF10928000109281009091810099
:1005600098609093810090918100916090938100B8
:10057000282F30E0F901E255FF4FE491F0E0EE0F53
:10058000FF1FEC55FF4F45915491F901E057FF4F84
:10059000E491E0930E028ACF1092B0001092B10065
:1005A0009091B00092609093B0009091B1009160F2
:1005B0009093B100282F30E0F901E255FF4FE4910C
:1005C000F0E0EE0FFF1FEC55FF4F45915491509313
:1005D0000D0240930C02F901E057FF4FE491E093C4
:1005E0000B0264CF85B5887F846085BD87E687BDB3
:1005F00086E090E0A0E0B0E08093180290931902AA
:10060000A0931A02B0931B0280916E0082608093C7
:100610006E0045CFC130F1F480918100887F816008
:100620008093810089E298E6909389008093880006
:1006300086E090E0A0E0B0E0809314029093150271
:10064000A0931602B093170280916F00826080938E
:100650006F0025CFC23021F0C11121CF89E2C7CF71
:1006600089E234CF3FB7F8948091F8019091F90175
:10067000A091FA01B091FB0126B5A89B05C02F3FC0
:1006800019F00196A11DB11D3FBFBA2FA92F982FB8
:100690008827BC01CD01620F711D811D911D42E0B3
:1006A000660F771F881F991F4A95D1F708958F927B
:1006B0009F92AF92BF92CF92DF92EF92FF924B0147
:1006C0005C010E9432036B017C010E9432036C19B1
:1006D0007D098E099F09683E734081059105A8F345
:1006E00021E0821A9108A108B10888EEC80E83E0C3
:1006F000D81EE11CF11C81149104A104B10429F756
:10070000FF90EF90DF90CF90BF90AF909F908F9031
:10071000089585ED8093BC008091BC0084FDFCCFE2
:100720001092020208952091AC01260F3327331F47
:1007300021323105ECF420910202FC0190E080E0CE
:10074000243069F082E00895A091AC012191AC01C0
:1007500044575E4FA40FB52FB11D2C9301968617F9
:1007600098F38091AC01680F6093AC0180E008952C
:1007700081E008950895E091060280910502E8174E
:1007800030F4F0E0E459FE4F808190E008958FEF5F
:100790009FEF089590910602809105022FEF3FEFA1
:1007A000981748F4E92FF0E0E459FE4F208130E03B
:1007B0009F5F90930602C901089580910502909170
:1007C0000602891B990B0895CF92DF92EF92FF9258
:1007D0000F931F93CF93DF937C01CB018A0120916C
:1007E0006B01222389F0EB016B01C40ED51ECC15E1
:1007F000DD0569F06991D701ED91FC910190F081DF
:10080000E02DC7010995F3CF642F0E949303C8011F
:10081000DF91CF911F910F91FF90EF90DF90CF90DC
:100820000895CF93DF931F92CDB7DEB769832091F0
:100830006B012223F9F020910302203258F021E0CD
:1008400030E0FC013383228390E080E00F90DF9161
:10085000CF91089580910402E82FF0E0E55BFE4F10
:10086000998190838F5F809304028093030281E0DB
:1008700090E0ECCF61E0CE0101960E949303F7CFA8
:10088000CF93FC01C48121E020936B01C0934A0106
:1008900010920402109203028485682B89EB92E087
:1008A0000E94110490910302913208F03FC08091A0
:1008B00002028111FCCF82E08093020281E08093EA
:1008C00001028FEF8093CF011092F1019093F0011C
:1008D000ABE4B1E0E0EDF1E080E098132FC01092BE
:1008E000F2018091F201CC0FC82BC093F2018091EC
:1008F0000002813039F5109200028091F20180935C
:10090000BB008091BC0083FDF8CF85EC8093BC00D8
:10091000809102028230E1F38091CF018F3F31F06C
:100920008091CF01803211F08091CF0110920402AA
:100930001092030210926B01CF9108952D91219393
:100940008F5FCBCF85EEE2CF089590E080E00895F1
:100950000F931F93CF938C01C62F0E9440046C2FDE
:100960006460C8010E9440046C2F6B7FC8010E9424
:10097000400483EC90E00197F1F7CF911F910F9124
:1009800008950F931F93CF93DF938C01D62FC42F1D
:10099000607F642B0E94A80480E1D89FB0011124DD
:1009A0006C2BC801DF91CF911F910F910C94A8047B
:1009B000CF93DF93CDB7DEB728970FB6F894DEBF9D
:1009C0000FBECDBF98E0E1E0F1E0DE0111960190AD
:1009D0000D929A95E1F79091CD02981708F48FEF58
:1009E00090E0880F991F21E030E02C0F3D1F820F0F
:1009F000931FFC016081606840E085EC92E02896DE
:100A00000FB6F894DEBF0FBECDBFDF91CF910C942F
:100A1000C10441E00E94C10481E090E00895FB011F
:100A200001900020E9F73197AF01461B570BDC011D
:100A3000ED91FC910280F381E02D09948F929F92B9
:100A4000AF92BF92EF92FF920F931F93CF93DF93DA
:100A5000CDB7DEB7A1970FB6F894DEBF0FBECDBFFE
:100A60007C01FA01CB0119A2223008F42AE08E01A0
:100A70000F5D1F4F822E912CB12CA12CBF01A5011F
:100A800094010E94BE0CF901CA016A300CF5605D48
:100A9000D8016E938D01232B242B252B79F790E021
:100AA00080E0109721F0BD01C7010E940F05A196BB
:100AB0000FB6F894DEBF0FBECDBFDF91CF911F916F
:100AC0000F91FF90EF90BF90AF909F908F900895FF
:100AD000695CDECFCF92DF92EF92FF920F931F936C
:100AE000CF93DF93EC016A017B01E881F9810190EA
:100AF000F081E02D6DE209958C0144275527BA015C
:100B00004C195D096E097F092AE0CE010E941E057D
:100B1000800F911FDF91CF911F910F91FF90EF9068
:100B2000DF90CF9008951F920F920FB60F9211246D
:100B30002F933F934F935F936F937F938F939F93E5
:100B4000AF93BF93EF93FF938091100290911102A6
:100B5000A0911202B0911302892B8A2B8B2BD1F119
:100B600090910B02E0910C02F0910D028081892797
:100B700080838091100290911102A0911202B09195
:100B80001302181619061A061B069CF4809110020F
:100B900090911102A0911202B09113020197A10944
:100BA000B1098093100290931102A0931202B093A6
:100BB0001302FF91EF91BF91AF919F918F917F9120
:100BC0006F915F914F913F912F910F900FBE0F90BA
:100BD0001F90189580910001E2ECF0E0E4919FEF06
:100BE00090930001E13051F030F0E23069F060E0C4
:100BF0000E94E901DECF10926E00F9CF90916F0054
:100C00009D7F90936F00F3CF909170009D7F9093A4
:100C1000700091E09093B0009091B100987F946043
:100C20009093B1001092B300E2CF1F920F920FB6D3
:100C30000F9211242F933F934F935F936F937F9362
:100C40008F939F93AF93BF93EF93FF938CE192E0C9
:100C50000E940D01FF91EF91BF91AF919F918F91F4
:100C60007F916F915F914F913F912F910F900FBEA8
:100C70000F901F9018951F920F920FB60F9211248C
:100C80002F938F939F93EF93FF93E0912C02F0911A
:100C90002D028081E0913202F091330282FD1BC06F
:100CA0009081809135028F5F8F7320913602821779
:100CB00041F0E0913502F0E0E45EFD4F958F8093C6
:100CC0003502FF91EF919F918F912F910F900FBE61
:100CD0000F901F9018958081F4CF1F920F920FB63E
:100CE0000F9211242F933F938F939F93AF93BF93B2
:100CF0008091F4019091F501A091F601B091F70176
:100D00003091F30123E0230F2D3758F50196A11DF3
:100D1000B11D2093F3018093F4019093F501A0930A
:100D2000F601B093F7018091F8019091F901A0913B
:100D3000FA01B091FB010196A11DB11D8093F8014C
:100D40009093F901A093FA01B093FB01BF91AF9189
:100D50009F918F913F912F910F900FBE0F901F90F9
:100D6000189526E8230F0296A11DB11DD2CF1F9220
:100D70000F920FB60F9211242F933F934F935F93CF
:100D80006F937F938F939F93AF93BF93EF93FF9353
:100D90008091B900887F803609F44AC0F0F5883226
:100DA00009F4A7C018F5803109F49BC0B8F4882372
:100DB00009F4F9C0883009F494C0FF91EF91BF9114
:100DC000AF919F918F917F916F915F914F913F91E3
:100DD0002F910F900FBE0F901F901895883109F436
:100DE00088C0803251F78093CF0114C0803409F459
:100DF0009DC040F48033B9F38833F9F68093CF0176
:100E000085ECB0C0803509F485C0883509F496C0FA
:100E1000883499F60E948903D0CF883909F48CC0B0
:100E200038F5883729F050F4883611F0803729F6E4
:100E300083E0809302021092CE0157C0883809F4F3
:100E40007BC0803919F0803809F0B7CF8091CE018E
:100E5000803208F071C0E091CE0181E08E0F809366
:100E6000CE018091BB00F0E0E255FE4F80833DC093
:100E7000803B39F0E0F4803A09F479C0883A09F00F
:100E80009CCF84E0809302021092AD011092AC01DD
:100E9000E091FE01F091FF0109958091AC01811173
:100EA0000FC081E08093AC0110928C0109C0803C9E
:100EB00009F4A6CF883C09F4A3CF883B09F07DCF85
:100EC000E091AD0181E08E0F8093AD01F0E0E45739
:100ED000FE4F80818093BB009091AD018091AC0169
:100EE00029C08091F2018093BB0085EC8093BC0007
:100EF00064CF9091F1018091F001981758F5E0913D
:100F0000F10181E08E0F8093F101F0E0E053FE4F9C
:100F10008081E9CFE091F10181E08E0F8093F101B2
:100F20008091BB00F0E0E053FE4F80839091F1018F
:100F30008091F0019817C8F285E8D8CFE091F101CF
:100F400081E08E0F8093F1018091BB00F0E0E053CF
:100F5000FE4F80838091010281115CCF81E08093FC
:100F6000000284EA8093BC001092020226CF85EC36
:100F70008093BC00109202028091CE01803230F446
:100F8000E091CE01F0E0E255FE4F10826091CE017B
:100F900070E0E091FC01F091FD018EEA91E009958D
:100FA0001092CE010ACF1092CF0134CFCF92DF92B0
:100FB000EF92FF920F931F93E82FF92F05C0015076
:100FC00011092109310961F1908196239417B9F330
:100FD00005C0015011092109310911F190819623B1
:100FE0009413F7CFC12CD12CE12CF12C0AC08FEF38
:100FF000C81AD80AE80AF80A0C151D052E053F057F
:1010000079F080818623841791F36C2D7D2D8E2DB0
:101010009F2D1F910F91FF90EF90DF90CF9008953B
:1010200060E070E080E090E01F910F91FF90EF9002
:10103000DF90CF900895ECE1F2E01382128288EE07
:1010400093E0A0E0B0E084839583A683B7832DE08E
:1010500031E03183208325EC30E03587248724EC90
:1010600030E03787268720EC30E0318B208B21EC75
:1010700030E0338B228B22EC30E0358B248B26EC56
:1010800030E0378B268B118E128E138E148EE9EB87
:10109000F2E01382128284839583A683B7838FE163
:1010A00091E091838083E5ECF2E01382128281E388
:1010B00091E091838083118687E2848380E1828737
:1010C00082E0838714860895789484B5826084BD15
:1010D00084B5816084BD85B5826085BD85B581603C
:1010E00085BD80916E00816080936E0010928100BA
:1010F0008091810082608093810080918100816075
:101100008093810080918000816080938000809135
:10111000B10084608093B1008091B00081608093C1
:10112000B00080917A00846080937A0080917A0088
:10113000826080937A0080917A00816080937A0047
:1011400080917A00806880937A001092C10010929A
:1011500006021092050210920402109203021092ED
:10116000020281E0809301021092000261E082E1BC
:101170000E94E90161E083E10E94E9018091B900E8
:101180008E7F8093B9008091B9008D7F8093B900E4
:1011900088E48093B80085E48093BC008DE890E0FB
:1011A0009093FF018093FE018EE890E09093FD0103
:1011B0008093FC011092CA028091D002823018F014
:1011C00098E09093CA028093CD0262E370E080E0E1
:1011D00090E00E9457036091D10285EC92E00E945A
:1011E000400468EE73E080E090E00E94570360E303
:1011F00085EC92E00E94A804CBE4D6E4CE010197EE
:10120000F1F760E385EC92E00E94A8042197F1F7E2
:1012100060E385EC92E00E94A80483E592E00197E8
:10122000F1F760E285EC92E00E94A8046091CA02A6
:10123000606240E085EC92E00E94C10484E080930B
:10124000CB0240E06CE085EC92E00E94C10440E0FB
:1012500061E085EC92E00E94C1048BE39FE101977D
:10126000F1F78091CE02882319F080E00E94D80423
:10127000C2E0C093CC0240E066E085EC92E00E94C0
:10128000C10440E062E085EC92E00E94C1048BE37F
:101290009FE10197F1F7E0912C02F0912D02C083BC
:1012A000E0912802F09129021082E0912A02F09147
:1012B0002B028FEC808310923402E0913002F09187
:1012C000310286E08083E0912E02F0912F0280812E
:1012D00080618083E0912E02F0912F0280818860EE
:1012E0008083E0912E02F0912F02808180688083BC
:1012F000E0912E02F0912F0280818F7D808361E04A
:1013000088E00E94170261E08CE00E94170260E012
:101310008DE00E941702C3E0D0E093E2E92EF12CA9
:101320002DE9C22E20E0D22E3BEBA32E30E0B32ECF
:1013300045E4742E50E0852E50E0952E60E08CE060
:101340000E94E901CE010197F1F761E08CE00E9473
:10135000E901C7010197F1F760E08CE00E94E90123
:10136000F6016491F5018491E82FF0E0EE0FFF1F84
:10137000EE58FF4F8591949100E412E42FE030E0A5
:10138000462F0E94D607611571058105910529F048
:101390006F5F7F4F8F4F9F4F9F700E94C50B26E955
:1013A00033E44BE05DE30E94290C20E030E040E0B4
:1013B0005FE30E94290C0E948D0B70930A026093D8
:1013C0000902AB01770F660B770B77FF75C08CE1D5
:1013D00092E00E946A0569E371E08CE192E00E946C
:1013E0000F058091090290910A0206979CF5709270
:1013F0007C0080917A00806480937A0080917A00EA
:1014000086FDFCCF909178008091790089279827FC
:1014100089279093080280930702AC01092E000CE3
:10142000660B770B97FF4EC08CE192E00E946A0535
:1014300069E371E08CE192E00E940F058091070260
:1014400090910802893E93400CF442C061E082E032
:101450000E94E90180E00E94D8046CE371E085EC11
:1014600092E00E940F0581E00E94D8044091090299
:1014700050910A02052E000C660B770B77FF47C1CF
:1014800085EC92E00E946A0565E471E085EC92E0EB
:101490000E940F056AE070E080E090E00E94570330
:1014A0008114910409F44ACF0E94F900882309F4B9
:1014B00045CF0E94000042CF2AE08CE192E00E94DA
:1014C0001E0589CF2AE08CE192E00E941E05B0CF74
:1014D00060E082E00E94E90188E00E94480264E640
:1014E00070E080E090E00E94570388E00E9448028C
:1014F00064E670E080E090E00E94570361E082E0E3
:101500000E94170261E083E00E94170261E084E01C
:101510000E94170261E085E00E94170261E086E008
:101520000E94170261E087E00E94170261E088E0F4
:101530000E94170261E089E00E94170261E08AE0E0
:101540000E94170261E08BE00E94170261E08CE0CC
:101550000E94170261E08DE00E9417020E94C501FF
:10156000019709F0A1C061E087E00E94E90161E014
:1015700088E00E94E9016EE170E080E090E00E9466
:10158000570360E087E00E94E90160E088E00E9484
:10159000E9016EE170E080E090E00E94570361E0B5
:1015A00086E00E94E90161E089E00E94E9016EE1C4
:1015B00070E080E090E00E94570360E086E00E94C7
:1015C000E90160E089E00E94E9016EE170E080E0FD
:1015D00090E00E94570361E085E00E94E90161E02C
:1015E0008AE00E94E9016EE170E080E090E00E94F4
:1015F000570360E085E00E94E90160E08AE00E9414
:10160000E9016EE170E080E090E00E94570361E044
:1016100084E00E94E90161E08BE00E94E9016EE153
:1016200070E080E090E00E94570360E084E00E9458
:10163000E90160E08BE00E94E9016EE170E080E08A
:1016400090E00E94570361E083E00E94E90161E0BD
:101650008CE00E94E9016EE170E080E090E00E9481
:10166000570360E083E00E94E90160E08CE00E94A3
:10167000E9016EE170E080E090E00E94570361E0D4
:101680008DE00E94E9016EE170E080E090E00E9450
:10169000570360E08DE00E94E9016EE170E080E0B8
:1016A00090E00E945703D6CE60E082E00E94E901FC
:1016B00060E083E00E94E90160E084E00E94E901CB
:1016C00060E085E00E94E90160E086E00E94E901B7
:1016D00060E087E00E94E90160E088E00E94E901A3
:1016E00060E089E00E94E90160E08AE00E94E9018F
:1016F00060E08BE00E94E90160E08CE00E94E9017B
:1017000060E08DE00E94E9010E94C501A3CE2AE0BD
:1017100085EC92E00E941E05B7CE0E94940B68945F
:10172000B1110C94230C08950E94080C88F09F5767
:1017300098F0B92F9927B751B0F0E1F0660F771FF5
:10174000881F991F1AF0BA95C9F714C0B13091F0EB
:101750000E94220CB1E008950C94220C672F782F80
:101760008827B85F39F0B93FCCF3869577956795B0
:10177000B395D9F73EF490958095709561957F4F1C
:101780008F4F9F4F0895E89409C097FB3EF49095C2
:101790008095709561957F4F8F4F9F4F9923A9F04A
:1017A000F92F96E9BB279395F695879577956795D9
:1017B000B795F111F8CFFAF4BB0F11F460FF1BC01D
:1017C0006F5F7F4F8F4F9F4F16C0882311F096E9B0
:1017D00011C0772321F09EE8872F762F05C066235E
:1017E00071F096E8862F70E060E02AF09A95660F17
:1017F000771F881FDAF7880F9695879597F90895D0
:1018000057FD9058440F551F59F05F3F71F04795B1
:10181000880F97FB991F61F09F3F79F08795089596
:10182000121613061406551FF2CF4695F1DF08C0B5
:10183000161617061806991FF1CF869571056105D2
:1018400008940895E894BB2766277727CB0197F97A
:1018500008950E943C0C0C94AD0C0E949F0C38F033
:101860000E94A60C20F0952311F00C94960C0C9479
:101870009C0C11240C94230C0E94000C70F3959F77
:10188000C1F3950F50E0551F629FF001729FBB2777
:10189000F00DB11D639FAA27F00DB11DAA1F649F13
:1018A0006627B00DA11D661F829F2227B00DA11DC6
:1018B000621F739FB00DA11D621F839FA00D611D4C
:1018C000221F749F3327A00D611D231F849F600D6D
:1018D000211D822F762F6A2F11249F5750409AF096
:1018E000F1F088234AF0EE0FFF1FBB1F661F771F22
:1018F000881F91505040A9F79E3F510580F00C94ED
:10190000960C0C94230C5F3FE4F3983ED4F3869539
:1019100077956795B795F795E7959F5FC1F7FE2B8C
:10192000880F911D9695879597F9089597F99F6768
:1019300080E870E060E008959FEF80EC0895002457
:101940000A941616170618060906089500240A9424
:1019500012161306140605060895092E0394000CAA
:1019600011F4882352F0BB0F40F4BF2B11F460FF39
:1019700004C06F5F7F4F8F4F9F4F0895A1E21A2ED3
:10198000AA1BBB1BFD010DC0AA1FBB1FEE1FFF1F23
:10199000A217B307E407F50720F0A21BB30BE40B73
:1019A000F50B661F771F881F991F1A9469F76095BA
:1019B0007095809590959B01AC01BD01CF01089574
:1019C000EE0FFF1F0590F491E02D0994F894FFCFDE
:1019D000FF0000400014005400000000002F018FA1
:1019E00000BC007C01ED00CB00DF00000000001116
:1019F00004E403A504BA03DD03CA03BB030000002B
:101A00000009058F00A504A4040D0A00446973743D
:0A1A1000616E63650020636D000045
:107E0000112484B714BE81FFF0D085E080938100F7
:107E100082E08093C00088E18093C10086E0809377
:107E2000C20080E18093C4008EE0C9D0259A86E02C
:107E300020E33CEF91E0309385002093840096BBD3
:107E4000B09BFECF1D9AA8958150A9F7CC24DD24C4
:107E500088248394B5E0AB2EA1E19A2EF3E0BF2EE7
:107E6000A2D0813461F49FD0082FAFD0023811F036
:107E7000013811F484E001C083E08DD089C08234E0
:107E800011F484E103C0853419F485E0A6D080C0E4
:107E9000853579F488D0E82EFF2485D0082F10E0AE
:107EA000102F00270E291F29000F111F8ED06801E7
:107EB0006FC0863521F484E090D080E0DECF843638
:107EC00009F040C070D06FD0082F6DD080E0C81688
:107ED00080E7D80618F4F601B7BEE895C0E0D1E017
:107EE00062D089930C17E1F7F0E0CF16F0E7DF06D8
:107EF00018F0F601B7BEE89568D007B600FCFDCFD4
:107F0000A601A0E0B1E02C9130E011968C91119780
:107F100090E0982F8827822B932B1296FA010C0160
:107F200087BEE89511244E5F5F4FF1E0A038BF0790
:107F300051F7F601A7BEE89507B600FCFDCF97BE46
:107F4000E89526C08437B1F42ED02DD0F82E2BD052
:107F50003CD0F601EF2C8F010F5F1F4F84911BD097
:107F6000EA94F801C1F70894C11CD11CFA94CF0C13
:107F7000D11C0EC0853739F428D08EE10CD085E9AC
:107F80000AD08FE07ACF813511F488E018D01DD067
:107F900080E101D065CF982F8091C00085FFFCCF94
:107FA0009093C60008958091C00087FFFCCF809118
:107FB000C00084FD01C0A8958091C6000895E0E648
:107FC000F0E098E1908380830895EDDF803219F02E
:107FD00088E0F5DFFFCF84E1DECF1F93182FE3DFCA
:107FE0001150E9F7F2DF1F91089580E0E8DFEE27F6
:047FF000FF270994CA
:027FFE00040479
:0400000300007E007B
:00000001FF
